{
  "_format": "hh-sol-artifact-1",
  "contractName": "StakingPool",
  "sourceName": "contracts/DCTDstaking.sol",
  "abi": [
    {
      "inputs": [
        {
          "internalType": "contract IERC20",
          "name": "stackingToken",
          "type": "address"
        },
        {
          "internalType": "contract IERC20",
          "name": "_rewardToken",
          "type": "address"
        },
        {
          "internalType": "uint256",
          "name": "_rewardPerBlock",
          "type": "uint256"
        },
        {
          "internalType": "uint256",
          "name": "_startBlock",
          "type": "uint256"
        },
        {
          "internalType": "uint256",
          "name": "_bonusEndBlock",
          "type": "uint256"
        }
      ],
      "stateMutability": "nonpayable",
      "type": "constructor"
    },
    {
      "anonymous": false,
      "inputs": [
        {
          "indexed": true,
          "internalType": "address",
          "name": "user",
          "type": "address"
        },
        {
          "indexed": false,
          "internalType": "uint256",
          "name": "amount",
          "type": "uint256"
        }
      ],
      "name": "Deposit",
      "type": "event"
    },
    {
      "anonymous": false,
      "inputs": [
        {
          "indexed": true,
          "internalType": "address",
          "name": "user",
          "type": "address"
        },
        {
          "indexed": false,
          "internalType": "uint256",
          "name": "amount",
          "type": "uint256"
        }
      ],
      "name": "EmergencyWithdraw",
      "type": "event"
    },
    {
      "anonymous": false,
      "inputs": [
        {
          "indexed": true,
          "internalType": "address",
          "name": "previousOwner",
          "type": "address"
        },
        {
          "indexed": true,
          "internalType": "address",
          "name": "newOwner",
          "type": "address"
        }
      ],
      "name": "OwnershipTransferred",
      "type": "event"
    },
    {
      "anonymous": false,
      "inputs": [
        {
          "indexed": true,
          "internalType": "address",
          "name": "user",
          "type": "address"
        },
        {
          "indexed": false,
          "internalType": "uint256",
          "name": "amount",
          "type": "uint256"
        }
      ],
      "name": "Withdraw",
      "type": "event"
    },
    {
      "inputs": [],
      "name": "bonusEndBlock",
      "outputs": [
        {
          "internalType": "uint256",
          "name": "",
          "type": "uint256"
        }
      ],
      "stateMutability": "view",
      "type": "function"
    },
    {
      "inputs": [
        {
          "internalType": "uint256",
          "name": "_bonusEndBlock",
          "type": "uint256"
        }
      ],
      "name": "changeEndBlock",
      "outputs": [],
      "stateMutability": "nonpayable",
      "type": "function"
    },
    {
      "inputs": [
        {
          "internalType": "uint256",
          "name": "_rewardPerBlock",
          "type": "uint256"
        }
      ],
      "name": "changeRewardPerBlock",
      "outputs": [],
      "stateMutability": "nonpayable",
      "type": "function"
    },
    {
      "inputs": [
        {
          "internalType": "uint256",
          "name": "_startBlock",
          "type": "uint256"
        }
      ],
      "name": "changeStartBlock",
      "outputs": [],
      "stateMutability": "nonpayable",
      "type": "function"
    },
    {
      "inputs": [
        {
          "internalType": "uint256",
          "name": "_amount",
          "type": "uint256"
        }
      ],
      "name": "emergencyRewardWithdraw",
      "outputs": [],
      "stateMutability": "nonpayable",
      "type": "function"
    },
    {
      "inputs": [],
      "name": "emergencyWithdraw",
      "outputs": [],
      "stateMutability": "nonpayable",
      "type": "function"
    },
    {
      "inputs": [
        {
          "internalType": "uint256",
          "name": "_from",
          "type": "uint256"
        },
        {
          "internalType": "uint256",
          "name": "_to",
          "type": "uint256"
        }
      ],
      "name": "getMultiplier",
      "outputs": [
        {
          "internalType": "uint256",
          "name": "",
          "type": "uint256"
        }
      ],
      "stateMutability": "view",
      "type": "function"
    },
    {
      "inputs": [],
      "name": "owner",
      "outputs": [
        {
          "internalType": "address",
          "name": "",
          "type": "address"
        }
      ],
      "stateMutability": "view",
      "type": "function"
    },
    {
      "inputs": [
        {
          "internalType": "address",
          "name": "_user",
          "type": "address"
        }
      ],
      "name": "pendingReward",
      "outputs": [
        {
          "internalType": "uint256",
          "name": "",
          "type": "uint256"
        }
      ],
      "stateMutability": "view",
      "type": "function"
    },
    {
      "inputs": [],
      "name": "poolInfo",
      "outputs": [
        {
          "internalType": "contract IERC20",
          "name": "lpToken",
          "type": "address"
        },
        {
          "internalType": "uint256",
          "name": "allocPoint",
          "type": "uint256"
        },
        {
          "internalType": "uint256",
          "name": "lastRewardBlock",
          "type": "uint256"
        },
        {
          "internalType": "uint256",
          "name": "accCakePerShare",
          "type": "uint256"
        }
      ],
      "stateMutability": "view",
      "type": "function"
    },
    {
      "inputs": [],
      "name": "renounceOwnership",
      "outputs": [],
      "stateMutability": "nonpayable",
      "type": "function"
    },
    {
      "inputs": [],
      "name": "rewardPerBlock",
      "outputs": [
        {
          "internalType": "uint256",
          "name": "",
          "type": "uint256"
        }
      ],
      "stateMutability": "view",
      "type": "function"
    },
    {
      "inputs": [],
      "name": "rewardToken",
      "outputs": [
        {
          "internalType": "contract IERC20",
          "name": "",
          "type": "address"
        }
      ],
      "stateMutability": "view",
      "type": "function"
    },
    {
      "inputs": [
        {
          "internalType": "address",
          "name": "tokenAddress",
          "type": "address"
        }
      ],
      "name": "saveMe",
      "outputs": [],
      "stateMutability": "nonpayable",
      "type": "function"
    },
    {
      "inputs": [
        {
          "internalType": "uint256",
          "name": "poolId",
          "type": "uint256"
        },
        {
          "internalType": "uint256",
          "name": "_amount",
          "type": "uint256"
        }
      ],
      "name": "stake",
      "outputs": [],
      "stateMutability": "nonpayable",
      "type": "function"
    },
    {
      "inputs": [],
      "name": "startBlock",
      "outputs": [
        {
          "internalType": "uint256",
          "name": "",
          "type": "uint256"
        }
      ],
      "stateMutability": "view",
      "type": "function"
    },
    {
      "inputs": [],
      "name": "stopReward",
      "outputs": [],
      "stateMutability": "nonpayable",
      "type": "function"
    },
    {
      "inputs": [],
      "name": "totalStaked",
      "outputs": [
        {
          "internalType": "uint256",
          "name": "",
          "type": "uint256"
        }
      ],
      "stateMutability": "view",
      "type": "function"
    },
    {
      "inputs": [
        {
          "internalType": "address",
          "name": "newOwner",
          "type": "address"
        }
      ],
      "name": "transferOwnership",
      "outputs": [],
      "stateMutability": "nonpayable",
      "type": "function"
    },
    {
      "inputs": [],
      "name": "updatePool",
      "outputs": [],
      "stateMutability": "nonpayable",
      "type": "function"
    },
    {
      "inputs": [
        {
          "internalType": "address",
          "name": "",
          "type": "address"
        }
      ],
      "name": "userInfo",
      "outputs": [
        {
          "internalType": "uint256",
          "name": "amount",
          "type": "uint256"
        },
        {
          "internalType": "uint256",
          "name": "rewardDebt",
          "type": "uint256"
        }
      ],
      "stateMutability": "view",
      "type": "function"
    },
    {
      "inputs": [
        {
          "internalType": "uint256",
          "name": "poolId",
          "type": "uint256"
        },
        {
          "internalType": "uint256",
          "name": "_amount",
          "type": "uint256"
        }
      ],
      "name": "withdraw",
      "outputs": [],
      "stateMutability": "nonpayable",
      "type": "function"
    }
  ],
  "bytecode": "0x608060405260006008556000600b553480156200001b57600080fd5b50604051620020223803806200202283398181016040528101906200004191906200026b565b62000061620000556200017160201b60201c565b6200017960201b60201c565b83600160006101000a81548173ffffffffffffffffffffffffffffffffffffffff021916908373ffffffffffffffffffffffffffffffffffffffff160217905550826002819055508160098190555080600a8190555060405180608001604052808673ffffffffffffffffffffffffffffffffffffffff1681526020016103e8815260200160095481526020016000815250600360008201518160000160006101000a81548173ffffffffffffffffffffffffffffffffffffffff021916908373ffffffffffffffffffffffffffffffffffffffff1602179055506020820151816001015560408201518160020155606082015181600301559050506103e8600881905550505050505062000373565b600033905090565b60008060009054906101000a900473ffffffffffffffffffffffffffffffffffffffff169050816000806101000a81548173ffffffffffffffffffffffffffffffffffffffff021916908373ffffffffffffffffffffffffffffffffffffffff1602179055508173ffffffffffffffffffffffffffffffffffffffff168173ffffffffffffffffffffffffffffffffffffffff167f8be0079c531659141344cd1fd0a4f28419497f9722a3daafe3b4186f6b6457e060405160405180910390a35050565b6000815190506200024e816200033f565b92915050565b600081519050620002658162000359565b92915050565b600080600080600060a086880312156200028457600080fd5b600062000294888289016200023d565b9550506020620002a7888289016200023d565b9450506040620002ba8882890162000254565b9350506060620002cd8882890162000254565b9250506080620002e08882890162000254565b9150509295509295909350565b6000620002fa8262000315565b9050919050565b60006200030e82620002ed565b9050919050565b600073ffffffffffffffffffffffffffffffffffffffff82169050919050565b6000819050919050565b6200034a8162000301565b81146200035657600080fd5b50565b620003648162000335565b81146200037057600080fd5b50565b611c9f80620003836000396000f3fe608060405234801561001057600080fd5b50600436106101425760003560e01c8063817b1cd2116100b8578063db2e21bc1161007c578063db2e21bc1461031b578063db315ef314610325578063e3161ddd14610341578063f2fde38b1461034b578063f40f0f5214610367578063f7c618c11461039757610142565b8063817b1cd21461027557806382222674146102935780638ae39cac146102af5780638da5cb5b146102cd5780638dbb1e3a146102eb57610142565b806348cd4cb11161010a57806348cd4cb1146101ea5780635437f098146102085780635a2f3d0914610224578063715018a6146102455780637b0472f01461024f57806380dc06721461026b57610142565b80631959a002146101475780631aed6553146101785780633279beab14610196578063439b8155146101b2578063441a3e70146101ce575b600080fd5b610161600480360381019061015c9190611632565b6103b5565b60405161016f929190611941565b60405180910390f35b6101806103d9565b60405161018d9190611926565b60405180910390f35b6101b060048036038101906101ab9190611684565b6103df565b005b6101cc60048036038101906101c79190611632565b610613565b005b6101e860048036038101906101e391906116d6565b6107ae565b005b6101f2610a9a565b6040516101ff9190611926565b60405180910390f35b610222600480360381019061021d9190611684565b610aa0565b005b61022c610b26565b60405161023c9493929190611861565b60405180910390f35b61024d610b64565b005b610269600480360381019061026491906116d6565b610bec565b005b610273610ea1565b005b61027d610f26565b60405161028a9190611926565b60405180910390f35b6102ad60048036038101906102a89190611684565b610f2c565b005b6102b7610fb2565b6040516102c49190611926565b60405180910390f35b6102d5610fb8565b6040516102e291906117cb565b60405180910390f35b610305600480360381019061030091906116d6565b610fe1565b6040516103129190611926565b60405180910390f35b610323611028565b005b61033f600480360381019061033a9190611684565b6111a3565b005b610349611229565b005b61036560048036038101906103609190611632565b6112df565b005b610381600480360381019061037c9190611632565b6113d7565b60405161038e9190611926565b60405180910390f35b61039f6114ec565b6040516103ac9190611846565b60405180910390f35b60076020528060005260406000206000915090508060000154908060010154905082565b600a5481565b6103e7611512565b73ffffffffffffffffffffffffffffffffffffffff16610405610fb8565b73ffffffffffffffffffffffffffffffffffffffff161461045b576040517f08c379a0000000000000000000000000000000000000000000000000000000008152600401610452906118e6565b60405180910390fd5b6000600160009054906101000a900473ffffffffffffffffffffffffffffffffffffffff1673ffffffffffffffffffffffffffffffffffffffff166370a08231306040518263ffffffff1660e01b81526004016104b891906117cb565b60206040518083038186803b1580156104d057600080fd5b505afa1580156104e4573d6000803e3d6000fd5b505050506040513d601f19601f8201168201806040525081019061050891906116ad565b90506000600b548261051a9190611a5c565b905080831061055e576040517f08c379a0000000000000000000000000000000000000000000000000000000008152600401610555906118a6565b60405180910390fd5b600160009054906101000a900473ffffffffffffffffffffffffffffffffffffffff1673ffffffffffffffffffffffffffffffffffffffff1663a9059cbb33856040518363ffffffff1660e01b81526004016105bb92919061181d565b602060405180830381600087803b1580156105d557600080fd5b505af11580156105e9573d6000803e3d6000fd5b505050506040513d601f19601f8201168201806040525081019061060d919061165b565b50505050565b61061b611512565b73ffffffffffffffffffffffffffffffffffffffff16610639610fb8565b73ffffffffffffffffffffffffffffffffffffffff161461068f576040517f08c379a0000000000000000000000000000000000000000000000000000000008152600401610686906118e6565b60405180910390fd5b60008190508073ffffffffffffffffffffffffffffffffffffffff1663a9059cbb338373ffffffffffffffffffffffffffffffffffffffff166370a08231306040518263ffffffff1660e01b81526004016106ea91906117cb565b60206040518083038186803b15801561070257600080fd5b505afa158015610716573d6000803e3d6000fd5b505050506040513d601f19601f8201168201806040525081019061073a91906116ad565b6040518363ffffffff1660e01b815260040161075792919061181d565b602060405180830381600087803b15801561077157600080fd5b505af1158015610785573d6000803e3d6000fd5b505050506040513d601f19601f820116820180604052508101906107a9919061165b565b505050565b6000600760003373ffffffffffffffffffffffffffffffffffffffff1673ffffffffffffffffffffffffffffffffffffffff16815260200190815260200160002090508181600001541015610838576040517f08c379a000000000000000000000000000000000000000000000000000000000815260040161082f90611906565b60405180910390fd5b610840611229565b6000816001015464e8d4a51000600380015484600001546108619190611a02565b61086b91906119d1565b6108759190611a5c565b9050600081111561093157600160009054906101000a900473ffffffffffffffffffffffffffffffffffffffff1673ffffffffffffffffffffffffffffffffffffffff1663a9059cbb33836040518363ffffffff1660e01b81526004016108dd92919061181d565b602060405180830381600087803b1580156108f757600080fd5b505af115801561090b573d6000803e3d6000fd5b505050506040513d601f19601f8201168201806040525081019061092f919061165b565b505b6000831115610a1a5782826000015461094a9190611a5c565b8260000181905550600360000160009054906101000a900473ffffffffffffffffffffffffffffffffffffffff1673ffffffffffffffffffffffffffffffffffffffff1663a9059cbb33856040518363ffffffff1660e01b81526004016109b292919061181d565b602060405180830381600087803b1580156109cc57600080fd5b505af11580156109e0573d6000803e3d6000fd5b505050506040513d601f19601f82011682018060405250810190610a04919061165b565b5082600b54610a139190611a5c565b600b819055505b64e8d4a5100060038001548360000154610a349190611a02565b610a3e91906119d1565b82600101819055503373ffffffffffffffffffffffffffffffffffffffff167f884edad9ce6fa2440d8a54cc123490eb96d2768479d49ff9c7366125a942436484604051610a8c9190611926565b60405180910390a250505050565b60095481565b610aa8611512565b73ffffffffffffffffffffffffffffffffffffffff16610ac6610fb8565b73ffffffffffffffffffffffffffffffffffffffff1614610b1c576040517f08c379a0000000000000000000000000000000000000000000000000000000008152600401610b13906118e6565b60405180910390fd5b8060098190555050565b60038060000160009054906101000a900473ffffffffffffffffffffffffffffffffffffffff16908060010154908060020154908060030154905084565b610b6c611512565b73ffffffffffffffffffffffffffffffffffffffff16610b8a610fb8565b73ffffffffffffffffffffffffffffffffffffffff1614610be0576040517f08c379a0000000000000000000000000000000000000000000000000000000008152600401610bd7906118e6565b60405180910390fd5b610bea600061151a565b565b6000600760003373ffffffffffffffffffffffffffffffffffffffff1673ffffffffffffffffffffffffffffffffffffffff1681526020019081526020016000209050610c37611229565b600081600001541115610d37576000816001015464e8d4a5100060038001548460000154610c659190611a02565b610c6f91906119d1565b610c799190611a5c565b90506000811115610d3557600160009054906101000a900473ffffffffffffffffffffffffffffffffffffffff1673ffffffffffffffffffffffffffffffffffffffff1663a9059cbb33836040518363ffffffff1660e01b8152600401610ce192919061181d565b602060405180830381600087803b158015610cfb57600080fd5b505af1158015610d0f573d6000803e3d6000fd5b505050506040513d601f19601f82011682018060405250810190610d33919061165b565b505b505b6000821115610e2257600360000160009054906101000a900473ffffffffffffffffffffffffffffffffffffffff1673ffffffffffffffffffffffffffffffffffffffff166323b872dd3330856040518463ffffffff1660e01b8152600401610da2939291906117e6565b602060405180830381600087803b158015610dbc57600080fd5b505af1158015610dd0573d6000803e3d6000fd5b505050506040513d601f19601f82011682018060405250810190610df4919061165b565b50818160000154610e05919061197b565b816000018190555081600b54610e1b919061197b565b600b819055505b64e8d4a5100060038001548260000154610e3c9190611a02565b610e4691906119d1565b81600101819055503373ffffffffffffffffffffffffffffffffffffffff167fe1fffcc4923d04b559f4d29a8bfc6cda04eb5b0d3c460751c2402c5c5cc9109c83604051610e949190611926565b60405180910390a2505050565b610ea9611512565b73ffffffffffffffffffffffffffffffffffffffff16610ec7610fb8565b73ffffffffffffffffffffffffffffffffffffffff1614610f1d576040517f08c379a0000000000000000000000000000000000000000000000000000000008152600401610f14906118e6565b60405180910390fd5b43600a81905550565b600b5481565b610f34611512565b73ffffffffffffffffffffffffffffffffffffffff16610f52610fb8565b73ffffffffffffffffffffffffffffffffffffffff1614610fa8576040517f08c379a0000000000000000000000000000000000000000000000000000000008152600401610f9f906118e6565b60405180910390fd5b80600a8190555050565b60025481565b60008060009054906101000a900473ffffffffffffffffffffffffffffffffffffffff16905090565b6000600a548211610fff578282610ff89190611a5c565b9050611022565b600a5483106110115760009050611022565b82600a5461101f9190611a5c565b90505b92915050565b6000600760003373ffffffffffffffffffffffffffffffffffffffff1673ffffffffffffffffffffffffffffffffffffffff1681526020019081526020016000209050600360000160009054906101000a900473ffffffffffffffffffffffffffffffffffffffff1673ffffffffffffffffffffffffffffffffffffffff1663a9059cbb3383600001546040518363ffffffff1660e01b81526004016110cf92919061181d565b602060405180830381600087803b1580156110e957600080fd5b505af11580156110fd573d6000803e3d6000fd5b505050506040513d601f19601f82011682018060405250810190611121919061165b565b508060000154600b546111349190611a5c565b600b8190555060008160000181905550600081600101819055503373ffffffffffffffffffffffffffffffffffffffff167f5fafa99d0643513820be26656b45130b01e1c03062e1266bf36f88cbd3bd969582600001546040516111989190611926565b60405180910390a250565b6111ab611512565b73ffffffffffffffffffffffffffffffffffffffff166111c9610fb8565b73ffffffffffffffffffffffffffffffffffffffff161461121f576040517f08c379a0000000000000000000000000000000000000000000000000000000008152600401611216906118e6565b60405180910390fd5b8060028190555050565b600360020154431161123a576112dd565b6000600b549050600081141561125a5743600360020181905550506112dd565b600061126b60036002015443610fe1565b90506000600854600360010154600254846112869190611a02565b6112909190611a02565b61129a91906119d1565b90508264e8d4a51000826112ae9190611a02565b6112b891906119d1565b60038001546112c7919061197b565b6003800181905550436003600201819055505050505b565b6112e7611512565b73ffffffffffffffffffffffffffffffffffffffff16611305610fb8565b73ffffffffffffffffffffffffffffffffffffffff161461135b576040517f08c379a0000000000000000000000000000000000000000000000000000000008152600401611352906118e6565b60405180910390fd5b600073ffffffffffffffffffffffffffffffffffffffff168173ffffffffffffffffffffffffffffffffffffffff1614156113cb576040517f08c379a00000000000000000000000000000000000000000000000000000000081526004016113c2906118c6565b60405180910390fd5b6113d48161151a565b50565b600080600760008473ffffffffffffffffffffffffffffffffffffffff1673ffffffffffffffffffffffffffffffffffffffff16815260200190815260200160002090506000600380015490506000600b54905060036002015443118015611440575060008114155b156114b357600061145660036002015443610fe1565b90506000600854600360010154600254846114719190611a02565b61147b9190611a02565b61148591906119d1565b90508264e8d4a51000826114999190611a02565b6114a391906119d1565b846114ae919061197b565b935050505b826001015464e8d4a510008385600001546114ce9190611a02565b6114d891906119d1565b6114e29190611a5c565b9350505050919050565b600160009054906101000a900473ffffffffffffffffffffffffffffffffffffffff1681565b600033905090565b60008060009054906101000a900473ffffffffffffffffffffffffffffffffffffffff169050816000806101000a81548173ffffffffffffffffffffffffffffffffffffffff021916908373ffffffffffffffffffffffffffffffffffffffff1602179055508173ffffffffffffffffffffffffffffffffffffffff168173ffffffffffffffffffffffffffffffffffffffff167f8be0079c531659141344cd1fd0a4f28419497f9722a3daafe3b4186f6b6457e060405160405180910390a35050565b6000813590506115ed81611c24565b92915050565b60008151905061160281611c3b565b92915050565b60008135905061161781611c52565b92915050565b60008151905061162c81611c52565b92915050565b60006020828403121561164457600080fd5b6000611652848285016115de565b91505092915050565b60006020828403121561166d57600080fd5b600061167b848285016115f3565b91505092915050565b60006020828403121561169657600080fd5b60006116a484828501611608565b91505092915050565b6000602082840312156116bf57600080fd5b60006116cd8482850161161d565b91505092915050565b600080604083850312156116e957600080fd5b60006116f785828601611608565b925050602061170885828601611608565b9150509250929050565b61171b81611a90565b82525050565b61172a81611ad8565b82525050565b600061173d60128361196a565b915061174882611b5a565b602082019050919050565b600061176060268361196a565b915061176b82611b83565b604082019050919050565b600061178360208361196a565b915061178e82611bd2565b602082019050919050565b60006117a660128361196a565b91506117b182611bfb565b602082019050919050565b6117c581611ace565b82525050565b60006020820190506117e06000830184611712565b92915050565b60006060820190506117fb6000830186611712565b6118086020830185611712565b61181560408301846117bc565b949350505050565b60006040820190506118326000830185611712565b61183f60208301846117bc565b9392505050565b600060208201905061185b6000830184611721565b92915050565b60006080820190506118766000830187611721565b61188360208301866117bc565b61189060408301856117bc565b61189d60608301846117bc565b95945050505050565b600060208201905081810360008301526118bf81611730565b9050919050565b600060208201905081810360008301526118df81611753565b9050919050565b600060208201905081810360008301526118ff81611776565b9050919050565b6000602082019050818103600083015261191f81611799565b9050919050565b600060208201905061193b60008301846117bc565b92915050565b600060408201905061195660008301856117bc565b61196360208301846117bc565b9392505050565b600082825260208201905092915050565b600061198682611ace565b915061199183611ace565b9250827fffffffffffffffffffffffffffffffffffffffffffffffffffffffffffffffff038211156119c6576119c5611afc565b5b828201905092915050565b60006119dc82611ace565b91506119e783611ace565b9250826119f7576119f6611b2b565b5b828204905092915050565b6000611a0d82611ace565b9150611a1883611ace565b9250817fffffffffffffffffffffffffffffffffffffffffffffffffffffffffffffffff0483118215151615611a5157611a50611afc565b5b828202905092915050565b6000611a6782611ace565b9150611a7283611ace565b925082821015611a8557611a84611afc565b5b828203905092915050565b6000611a9b82611aae565b9050919050565b60008115159050919050565b600073ffffffffffffffffffffffffffffffffffffffff82169050919050565b6000819050919050565b6000611ae382611aea565b9050919050565b6000611af582611aae565b9050919050565b7f4e487b7100000000000000000000000000000000000000000000000000000000600052601160045260246000fd5b7f4e487b7100000000000000000000000000000000000000000000000000000000600052601260045260246000fd5b7f6e6f7420656e6f75676820726577617264730000000000000000000000000000600082015250565b7f4f776e61626c653a206e6577206f776e657220697320746865207a65726f206160008201527f6464726573730000000000000000000000000000000000000000000000000000602082015250565b7f4f776e61626c653a2063616c6c6572206973206e6f7420746865206f776e6572600082015250565b7f77697468647261773a206e6f7420676f6f640000000000000000000000000000600082015250565b611c2d81611a90565b8114611c3857600080fd5b50565b611c4481611aa2565b8114611c4f57600080fd5b50565b611c5b81611ace565b8114611c6657600080fd5b5056fea2646970667358221220e69542db180e2644af7aedbb040865ee7986890fa1aba5b224c633520b39de7d64736f6c63430008040033",
  "linkReferences": {},
  "deployedLinkReferences": {}
}