{
  "_format": "hh-sol-artifact-1",
  "contractName": "DCTDNFTstaking",
  "sourceName": "contracts/DCTDNFTstaking.sol",
  "abi": [
    {
      "inputs": [],
      "stateMutability": "nonpayable",
      "type": "constructor"
    },
    {
      "anonymous": false,
      "inputs": [
        {
          "indexed": true,
          "internalType": "uint256",
          "name": "poolId",
          "type": "uint256"
        }
      ],
      "name": "PoolCreated",
      "type": "event"
    },
    {
      "anonymous": false,
      "inputs": [
        {
          "indexed": true,
          "internalType": "uint256",
          "name": "poolId",
          "type": "uint256"
        },
        {
          "indexed": true,
          "internalType": "address",
          "name": "staker_",
          "type": "address"
        },
        {
          "indexed": false,
          "internalType": "uint256",
          "name": "stakedAmount_",
          "type": "uint256"
        },
        {
          "indexed": false,
          "internalType": "uint256",
          "name": "time",
          "type": "uint256"
        }
      ],
      "name": "Staked",
      "type": "event"
    },
    {
      "anonymous": false,
      "inputs": [
        {
          "indexed": true,
          "internalType": "uint256",
          "name": "poolId",
          "type": "uint256"
        },
        {
          "indexed": true,
          "internalType": "address",
          "name": "staker_",
          "type": "address"
        },
        {
          "indexed": false,
          "internalType": "uint256",
          "name": "withdrawAmount",
          "type": "uint256"
        },
        {
          "indexed": false,
          "internalType": "uint256",
          "name": "time",
          "type": "uint256"
        }
      ],
      "name": "Withdraw",
      "type": "event"
    },
    {
      "inputs": [
        {
          "internalType": "string",
          "name": "name_",
          "type": "string"
        },
        {
          "internalType": "address",
          "name": "tokenAddress_",
          "type": "address"
        },
        {
          "internalType": "uint256",
          "name": "lockingStarts_",
          "type": "uint256"
        },
        {
          "internalType": "uint256",
          "name": "stakingStarts_",
          "type": "uint256"
        },
        {
          "internalType": "uint256",
          "name": "stakingEnds_",
          "type": "uint256"
        },
        {
          "internalType": "uint256",
          "name": "minimalAmount_",
          "type": "uint256"
        }
      ],
      "name": "createStaking",
      "outputs": [],
      "stateMutability": "nonpayable",
      "type": "function"
    },
    {
      "inputs": [],
      "name": "poolCount",
      "outputs": [
        {
          "internalType": "uint256",
          "name": "",
          "type": "uint256"
        }
      ],
      "stateMutability": "view",
      "type": "function"
    },
    {
      "inputs": [
        {
          "internalType": "uint256",
          "name": "",
          "type": "uint256"
        }
      ],
      "name": "poolInfo",
      "outputs": [
        {
          "internalType": "string",
          "name": "name",
          "type": "string"
        },
        {
          "internalType": "address",
          "name": "tokenAddress",
          "type": "address"
        },
        {
          "internalType": "uint256",
          "name": "lockingStarts",
          "type": "uint256"
        },
        {
          "internalType": "uint256",
          "name": "stakingStarts",
          "type": "uint256"
        },
        {
          "internalType": "uint256",
          "name": "stakingEnds",
          "type": "uint256"
        },
        {
          "internalType": "uint256",
          "name": "stakedTotal",
          "type": "uint256"
        },
        {
          "internalType": "uint256",
          "name": "stakedBalance",
          "type": "uint256"
        },
        {
          "internalType": "uint256",
          "name": "minimalAmount",
          "type": "uint256"
        }
      ],
      "stateMutability": "view",
      "type": "function"
    },
    {
      "inputs": [
        {
          "internalType": "uint256",
          "name": "",
          "type": "uint256"
        },
        {
          "internalType": "address",
          "name": "",
          "type": "address"
        }
      ],
      "name": "stakes",
      "outputs": [
        {
          "internalType": "uint256",
          "name": "",
          "type": "uint256"
        }
      ],
      "stateMutability": "view",
      "type": "function"
    },
    {
      "inputs": [
        {
          "internalType": "uint256",
          "name": "poolId",
          "type": "uint256"
        },
        {
          "internalType": "uint256",
          "name": "amount",
          "type": "uint256"
        }
      ],
      "name": "withdraw",
      "outputs": [],
      "stateMutability": "nonpayable",
      "type": "function"
    }
  ],
  "bytecode": "0x6080604052600060025534801561001557600080fd5b506112ac806100256000396000f3fe608060405234801561001057600080fd5b50600436106100575760003560e01c80631526fe271461005c578063441a3e7014610093578063a9a3bba4146100af578063c41bec0d146100df578063f525cb68146100fb575b600080fd5b61007660048036038101906100719190610a67565b610119565b60405161008a989796959493929190610c7d565b60405180910390f35b6100ad60048036038101906100a89190610acc565b610219565b005b6100c960048036038101906100c49190610a90565b610583565b6040516100d69190610de2565b60405180910390f35b6100f960048036038101906100f491906109c6565b6105a8565b005b61010361084d565b6040516101109190610de2565b60405180910390f35b6001818154811061012957600080fd5b906000526020600020906008020160009150905080600001805461014c90610f56565b80601f016020809104026020016040519081016040528092919081815260200182805461017890610f56565b80156101c55780601f1061019a576101008083540402835291602001916101c5565b820191906000526020600020905b8154815290600101906020018083116101a857829003601f168201915b5050505050908060010160009054906101000a900473ffffffffffffffffffffffffffffffffffffffff16908060020154908060030154908060040154908060050154908060060154908060070154905088565b80600081101561025e576040517f08c379a000000000000000000000000000000000000000000000000000000000815260040161025590610da2565b60405180910390fd5b33600073ffffffffffffffffffffffffffffffffffffffff168173ffffffffffffffffffffffffffffffffffffffff1614156102cf576040517f08c379a00000000000000000000000000000000000000000000000000000000081526004016102c690610d82565b60405180910390fd5b6000339050600060018681548110610310577f4e487b7100000000000000000000000000000000000000000000000000000000600052603260045260246000fd5b9060005260206000209060080201905060008087815260200190815260200160002060008373ffffffffffffffffffffffffffffffffffffffff1673ffffffffffffffffffffffffffffffffffffffff168152602001908152602001600020548511156103b2576040517f08c379a00000000000000000000000000000000000000000000000000000000081526004016103a990610d62565b60405180910390fd5b8460008088815260200190815260200160002060008473ffffffffffffffffffffffffffffffffffffffff1673ffffffffffffffffffffffffffffffffffffffff1681526020019081526020016000205461040d9190610e98565b60008088815260200190815260200160002060008473ffffffffffffffffffffffffffffffffffffffff1673ffffffffffffffffffffffffffffffffffffffff168152602001908152602001600020819055508481600601546104709190610e98565b81600601819055508060010160009054906101000a900473ffffffffffffffffffffffffffffffffffffffff1673ffffffffffffffffffffffffffffffffffffffff1663a9059cbb83876040518363ffffffff1660e01b81526004016104d7929190610c54565b602060405180830381600087803b1580156104f157600080fd5b505af1158015610505573d6000803e3d6000fd5b505050506040513d601f19601f82011682018060405250810190610529919061099d565b508173ffffffffffffffffffffffffffffffffffffffff16867fb0ecf14e184effded5473bba77dcfab32b094b77ac1fbb36beec2aef555879708742604051610573929190610dfd565b60405180910390a3505050505050565b6000602052816000526040600020602052806000526040600020600091509150505481565b600081116105eb576040517f08c379a00000000000000000000000000000000000000000000000000000000081526004016105e290610d02565b60405180910390fd5b600073ffffffffffffffffffffffffffffffffffffffff168573ffffffffffffffffffffffffffffffffffffffff16141561065b576040517f08c379a000000000000000000000000000000000000000000000000000000000815260040161065290610dc2565b60405180910390fd5b83831161069d576040517f08c379a000000000000000000000000000000000000000000000000000000000815260040161069490610d22565b60405180910390fd5b8282116106df576040517f08c379a00000000000000000000000000000000000000000000000000000000081526004016106d690610d42565b60405180910390fd5b600260008154809291906106f290610fb9565b919050555060016040518061010001604052808881526020018773ffffffffffffffffffffffffffffffffffffffff16815260200186815260200185815260200184815260200160008152602001600081526020018381525090806001815401808255809150506001900390600052602060002090600802016000909190919091506000820151816000019080519060200190610790929190610853565b5060208201518160010160006101000a81548173ffffffffffffffffffffffffffffffffffffffff021916908373ffffffffffffffffffffffffffffffffffffffff16021790555060408201518160020155606082015181600301556080820151816004015560a0820151816005015560c0820151816006015560e0820151816007015550506002547ffa88d81eaffbf548e3ffc6c6458827ce9906ad714060746b80909cdf8d1d7ef760405160405180910390a2505050505050565b60025481565b82805461085f90610f56565b90600052602060002090601f01602090048101928261088157600085556108c8565b82601f1061089a57805160ff19168380011785556108c8565b828001600101855582156108c8579182015b828111156108c75782518255916020019190600101906108ac565b5b5090506108d591906108d9565b5090565b5b808211156108f25760008160009055506001016108da565b5090565b600061090961090484610e4b565b610e26565b90508281526020810184848401111561092157600080fd5b61092c848285610f14565b509392505050565b60008135905061094381611231565b92915050565b60008151905061095881611248565b92915050565b600082601f83011261096f57600080fd5b813561097f8482602086016108f6565b91505092915050565b6000813590506109978161125f565b92915050565b6000602082840312156109af57600080fd5b60006109bd84828501610949565b91505092915050565b60008060008060008060c087890312156109df57600080fd5b600087013567ffffffffffffffff8111156109f957600080fd5b610a0589828a0161095e565b9650506020610a1689828a01610934565b9550506040610a2789828a01610988565b9450506060610a3889828a01610988565b9350506080610a4989828a01610988565b92505060a0610a5a89828a01610988565b9150509295509295509295565b600060208284031215610a7957600080fd5b6000610a8784828501610988565b91505092915050565b60008060408385031215610aa357600080fd5b6000610ab185828601610988565b9250506020610ac285828601610934565b9150509250929050565b60008060408385031215610adf57600080fd5b6000610aed85828601610988565b9250506020610afe85828601610988565b9150509250929050565b610b1181610ecc565b82525050565b6000610b2282610e7c565b610b2c8185610e87565b9350610b3c818560208601610f23565b610b458161108f565b840191505092915050565b6000610b5d602e83610e87565b9150610b68826110a0565b604082019050919050565b6000610b80603983610e87565b9150610b8b826110ef565b604082019050919050565b6000610ba3603583610e87565b9150610bae8261113e565b604082019050919050565b6000610bc6601f83610e87565b9150610bd18261118d565b602082019050919050565b6000610be9601983610e87565b9150610bf4826111b6565b602082019050919050565b6000610c0c601c83610e87565b9150610c17826111df565b602082019050919050565b6000610c2f601683610e87565b9150610c3a82611208565b602082019050919050565b610c4e81610f0a565b82525050565b6000604082019050610c696000830185610b08565b610c766020830184610c45565b9392505050565b6000610100820190508181036000830152610c98818b610b17565b9050610ca7602083018a610b08565b610cb46040830189610c45565b610cc16060830188610c45565b610cce6080830187610c45565b610cdb60a0830186610c45565b610ce860c0830185610c45565b610cf560e0830184610c45565b9998505050505050505050565b60006020820190508181036000830152610d1b81610b50565b9050919050565b60006020820190508181036000830152610d3b81610b73565b9050919050565b60006020820190508181036000830152610d5b81610b96565b9050919050565b60006020820190508181036000830152610d7b81610bb9565b9050919050565b60006020820190508181036000830152610d9b81610bdc565b9050919050565b60006020820190508181036000830152610dbb81610bff565b9050919050565b60006020820190508181036000830152610ddb81610c22565b9050919050565b6000602082019050610df76000830184610c45565b92915050565b6000604082019050610e126000830185610c45565b610e1f6020830184610c45565b9392505050565b6000610e30610e41565b9050610e3c8282610f88565b919050565b6000604051905090565b600067ffffffffffffffff821115610e6657610e65611060565b5b610e6f8261108f565b9050602081019050919050565b600081519050919050565b600082825260208201905092915050565b6000610ea382610f0a565b9150610eae83610f0a565b925082821015610ec157610ec0611002565b5b828203905092915050565b6000610ed782610eea565b9050919050565b60008115159050919050565b600073ffffffffffffffffffffffffffffffffffffffff82169050919050565b6000819050919050565b82818337600083830152505050565b60005b83811015610f41578082015181840152602081019050610f26565b83811115610f50576000848401525b50505050565b60006002820490506001821680610f6e57607f821691505b60208210811415610f8257610f81611031565b5b50919050565b610f918261108f565b810181811067ffffffffffffffff82111715610fb057610faf611060565b5b80604052505050565b6000610fc482610f0a565b91507fffffffffffffffffffffffffffffffffffffffffffffffffffffffffffffffff821415610ff757610ff6611002565b5b600182019050919050565b7f4e487b7100000000000000000000000000000000000000000000000000000000600052601160045260246000fd5b7f4e487b7100000000000000000000000000000000000000000000000000000000600052602260045260246000fd5b7f4e487b7100000000000000000000000000000000000000000000000000000000600052604160045260246000fd5b6000601f19601f8301169050919050565b7f444354447374616b696e673a20616d6f756e74546f5374616b6520686173207460008201527f6f20626520706f7369746976652e000000000000000000000000000000000000602082015250565b7f444354447374616b696e673a207374616b696e6720737461727473206d75737460008201527f206265206166746572206c6f636b696e67207374617274732e00000000000000602082015250565b7f444354447374616b696e673a207374616b696e6720656e64206d75737420626560008201527f206166746572207374616b696e67207374617274730000000000000000000000602082015250565b7f444354447374616b696e673a206e6f7420656e6f7567682062616c616e636500600082015250565b7f444354447374616b696e673a207a65726f206164647265737300000000000000600082015250565b7f444354447374616b696e673a206e6567617469766520616d6f756e7400000000600082015250565b7f444354447374616b696e673a2030206164647265737300000000000000000000600082015250565b61123a81610ecc565b811461124557600080fd5b50565b61125181610ede565b811461125c57600080fd5b50565b61126881610f0a565b811461127357600080fd5b5056fea264697066735822122057c839f5ce6fce18d0b82a1ecb0e688603a05e929981e4140422cf64ef18085964736f6c63430008040033",
  "linkReferences": {},
  "deployedLinkReferences": {}
}